:020000040800F2
:10000000012949D1DFF85022DFF85012904203D184
:10001000086840F001003EE0DFF84422904203D13E
:10002000086840F0020036E0DFF83822904203D141
:10003000086840F004002EE0DFF82C22904203D143
:10004000086840F0080026E0DFF82022904203D143
:10005000086840F010001EE0DFF81422904203D13F
:10006000086840F0200016E0DFF80822904203D133
:10007000086840F040000EE0DFF8FC21904203D118
:10008000086840F0800006E0DFF8F021904203D1DC
:10009000086840F4807008607047F8B50446012194
:1000A0002068FFF7ADFF637901200321042B0EDAEE
:1000B00025796D0003FA05F223681E6801FA05F53B
:1000C00026EA05051D601D682A431A6060E0DFF816
:1000D000B0210BD1D36800F09AF8D360936894F9FB
:1000E000045000FA05F5AB4393600BE0052B03D1F8
:1000F00000F093F8AB4304E0062B03D100F08DF839
:100100002B43D36025796E0805EB9677AB08BF08C3
:10011000A5EB87052668504FBE4227D0504FBE4200
:1001200008BF012623D04F4FBE4208BF02261ED073
:100130004D4FBE4208BF032619D04C4FBE4208BFE8
:10014000042614D04A4FBE4208BF05260FD0494F9F
:10015000BE4208BF06260AD0474FBE4208BF072648
:1001600005D0464FBE4208BF082600D00026454FA6
:10017000D7F800C0AD0006FA05F54CF4804C424EAD
:10018000C7F800C046F82350136800F040F8136029
:1001900025792268A37996686D00AB4001FA05F5D0
:1001A00026EA0505956095682B4393602579E379E8
:1001B000D6686D00A94026EA0101D160AB40D16844
:1001C0000B43D360217A23795568984025EA0000D3
:1001D000506099405068014351606179022915D1FE
:1001E0002079830800EB5375C108ED0802EB81010B
:1001F000A0EBC50080000A6A0F2383409A430A627D
:100200000A6A637A03FA00F010430862F1BD94F9B8
:10021000045000FA05F52B437047936894F9045095
:1002200000FA05F52B439360D36894F9045000FA63
:1002300005F570470123012A426903FA01F10CBF59
:10024000114322EA0101416170474269012303FA27
:1002500001F15140416170470000024030380240D6
:100260000004024000080240000C0240001002405E
:100270000014024000180240001C0240002002400E
:10028000003C0140443802400838014038B505467A
:10029000124C02220A21201D00F024F800222270B4
:1002A00009E0231D012119546A6852F82000804793
:1002B0002178491C2170207829788842F1D331BDFA
:1002C00020B906480278104400210171704780B5BA
:1002D0000348FFF7DBFF002002BD000010000020F4
:1002E0000800002062F30F2262F31F4200B500BF36
:1002F000130096469446103928BFA0E80C50FAD84F
:100300005FEA417C28BF0CC048BF40F8042BC907F6
:1003100028BF20F8022B48BF00F8012B00BD0000C9
:10032000704738B50C20284C284D20710121002041
:10033000E0802072617125602046FFF7AEFE00224A
:100340000B212348FFF776FFFFF7EAFFFFF7E8FFEF
:1003500000F040F800F042F8FFF7E2FF00F03AF852
:1003600000F03CF8FFF7DCFF00F034F800F036F85E
:10037000FFF7D6FF00F02EF800F030F8FFF7D0FFBF
:1003800000F028F800F02AF8FFF7CAFF00F022F882
:1003900000F024F8FFF7C4FF00F01CF800F01EF88E
:1003A000FFF7BEFF00F016F8257BFFF7B9FFFFF758
:1003B000B7FF6D1C2573E8B2BDE8324008280CBFBA
:1003C00001200020FFF77CBF20000020000C02402D
:1003D000000802400C212846FFF737BF207B401C55
:1003E00020739DE7FFF7FEBFFFF7FEBFFFF7FEBFDD
:1003F000FFF7FEBFFFF7FEBFFFF7FEBFFFF7FEBF31
:10040000FFF7FEBFFFF7FEBFFFF7FEBFFFF7FEBF20
:10041000FFF7FEBFFFF7FEBFFFF7FEBFFFF7FEBF10
:10042000FFF7FEBFFFF7FEBFFFF7FEBFFFF7FEBF00
:10043000FFF7FEBFFFF7FEBFFFF7FEBFFFF7FEBFF0
:10044000FFF7FEBFFFF7FEBFFFF7FEBFFFF7FEBFE0
:10045000FFF7FEBFFFF7FEBFFFF7FEBFFFF7FEBFD0
:10046000FFF7FEBFFFF7FEBFFFF7FEBFFFF7FEBFC0
:10047000FFF7FEBFFFF7FEBFFFF7FEBFFFF7FEBFB0
:10048000FFF7FEBFFFF7FEBFFFF7FEBFFFF7FEBFA0
:10049000FFF7FEBFFFF7FEBFFFF7FEBFFFF7FEBF90
:1004A000FFF7FEBFFFF7FEBFFFF7FEBFFFF7FEBF80
:1004B000FFF7FEBFFFF7FEBFFFF7FEBFFFF7FEBF70
:1004C000FFF7FEBFFFF7FEBFFFF7FEBFFFF7FEBF60
:1004D000FFF7FEBFFFF7FEBFFFF7FEBFFFF7FEBF50
:1004E000FFF7FEBFFFF7FEBFFFF7FEBFFFF7FEBF40
:1004F000FFF7FEBFFFF7FEBFFFF7FEBFFFF7FEBF30
:10050000FFF7FEBFFFF7FEBFFFF7FEBFFFF7FEBF1F
:10051000FFF7FEBFFFF7FEBFFFF7FEBFFFF7FEBF0F
:10052000FFF7FEBFFFF7FEBFFFF7FEBFFFF7FEBFFF
:10053000FFF7FEBFFFF7FEBFFFF7FEBFFFF7FEBFEF
:10054000FFF7FEBFFFF7FEBFFFF7FEBFFFF7FEBFDF
:10055000FFF7FEBF80B50020FFF7B2FE0120FFF7D6
:10056000AFFE0020FFF7ACFEBDE802400120FFF720
:10057000A7BE000000000000000000000000000016
:10058000000000000000000000000000000000006B
:10059000000000000000000000000000000000005B
:1005A000000000000000000000000000000000004B
:1005B000000000000000000000000000000000003B
:10100000E0A50120A9110008E5030008E903000894
:10101000ED030008F1030008F503000800000000DC
:10102000000000000000000000000000F9030008BC
:10103000FD0300080000000001040008050400088A
:10104000090400080D040008110400081504000834
:1010500000000000190400081D0400082104000815
:1010600025040008290400082D04000831040008A4
:1010700035040008390400083D0400084104000854
:1010800045040008490400084D0400085104000804
:1010900055040008590400085D04000861040008B4
:1010A00065040008690400086D0400087104000864
:1010B00075040008790400087D0400088104000814
:1010C00085040008890400088D04000891040008C4
:1010D00095040008990400089D040008A104000874
:1010E000A5040008A9040008AD040008B104000824
:1010F000B5040008B9040008BD040008C1040008D4
:10110000C5040008C9040008CD040008D104000883
:10111000D5040008D9040008DD040008E104000833
:10112000E5040008E9040008ED040008F1040008E3
:10113000F5040008F9040008FD0400080105000892
:1011400005050008090500080D050008110500083F
:1011500015050008190500081D05000821050008EF
:1011600025050008290500082D050008310500089F
:1011700035050008390500083D050008410500084F
:1011800049050008450500080000000000000000B7
:10119000000000000000000000000000000000004F
:1011A0004D0500085105000800F00EF800F027F882
:1011B00000F029F800F02BF800F037F800F04BF8B9
:1011C00062B6FFF784F801294FF000004FF00001EC
:1011D0004FF000024FF000034FF000044FF0000505
:1011E0004FF000064FF000074FF000084FF00009E5
:1011F0004FF0000A4FF0000B4FF0000CF74620486C
:1012000020490160F746204880F30888F7461F48C8
:10121000002809D01E491F4A521A013A04DD002055
:10122000002309C1083AFCDAF7461B481B4E351A61
:101230000C350C3D002D0DD00168426883680C30E0
:101240009C1A002CF5D014680C60491C521C9A4260
:10125000EFD0F8E7F7461248124E351A0835083D28
:10126000002D0BD0016842680830541A002CF6D0CB
:1012700000240C60491C8A42F1D0F9E7F7460000CF
:1012800008ED00E000B00120E0A501200100000011
:101290000000002000F40120B0120008E012000855
:1012A000E0120008F8120008000000000000000032
:1012B00000B0012000100008A81100080000002064
:1012C000F812000808130008A8B10120081300084C
:1012D00008130008F4CC01200813000808130008C4
:1012E000100000202D000020A8B10120A8B101208D
:1012F000F4CC0120F4CC012023030008550500089C
:081300000200000000000020C3
:04000005080011A935
:00000001FF
